{
  "contractName": "Escrow",
  "abi": [
    {
      "constant": true,
      "inputs": [],
      "name": "seller",
      "outputs": [
        {
          "name": "",
          "type": "address"
        }
      ],
      "payable": false,
      "stateMutability": "view",
      "type": "function"
    },
    {
      "constant": true,
      "inputs": [],
      "name": "buyer",
      "outputs": [
        {
          "name": "",
          "type": "address"
        }
      ],
      "payable": false,
      "stateMutability": "view",
      "type": "function"
    },
    {
      "inputs": [
        {
          "name": "_seller",
          "type": "address"
        },
        {
          "name": "_sender",
          "type": "address"
        }
      ],
      "payable": true,
      "stateMutability": "payable",
      "type": "constructor"
    },
    {
      "constant": false,
      "inputs": [],
      "name": "accept",
      "outputs": [],
      "payable": false,
      "stateMutability": "nonpayable",
      "type": "function"
    },
    {
      "constant": false,
      "inputs": [],
      "name": "reject",
      "outputs": [],
      "payable": false,
      "stateMutability": "nonpayable",
      "type": "function"
    }
  ],
  "bytecode": "0x606060405260405160408061047b83398101604052808051906020019091908051906020019091905050806000806101000a81548173ffffffffffffffffffffffffffffffffffffffff021916908373ffffffffffffffffffffffffffffffffffffffff16021790555081600160006101000a81548173ffffffffffffffffffffffffffffffffffffffff021916908373ffffffffffffffffffffffffffffffffffffffff1602179055504260028190555050506103b9806100c26000396000f300606060405260043610610062576000357c0100000000000000000000000000000000000000000000000000000000900463ffffffff16806308551a53146100675780632852b71c146100bc5780634dc415de146100d15780637150d8ae146100e6575b600080fd5b341561007257600080fd5b61007a61013b565b604051808273ffffffffffffffffffffffffffffffffffffffff1673ffffffffffffffffffffffffffffffffffffffff16815260200191505060405180910390f35b34156100c757600080fd5b6100cf610161565b005b34156100dc57600080fd5b6100e46102a9565b005b34156100f157600080fd5b6100f9610368565b604051808273ffffffffffffffffffffffffffffffffffffffff1673ffffffffffffffffffffffffffffffffffffffff16815260200191505060405180910390f35b600160009054906101000a900473ffffffffffffffffffffffffffffffffffffffff1681565b6000809054906101000a900473ffffffffffffffffffffffffffffffffffffffff1673ffffffffffffffffffffffffffffffffffffffff163373ffffffffffffffffffffffffffffffffffffffff1614156101be57426003819055505b600160009054906101000a900473ffffffffffffffffffffffffffffffffffffffff1673ffffffffffffffffffffffffffffffffffffffff163373ffffffffffffffffffffffffffffffffffffffff16141561021c57426004819055505b6000600354141580156102325750600060045414155b156102a757600160009054906101000a900473ffffffffffffffffffffffffffffffffffffffff1673ffffffffffffffffffffffffffffffffffffffff166108fc3073ffffffffffffffffffffffffffffffffffffffff16319081150290604051600060405180830381858888f19350505050505b565b6000809054906101000a900473ffffffffffffffffffffffffffffffffffffffff1673ffffffffffffffffffffffffffffffffffffffff163373ffffffffffffffffffffffffffffffffffffffff1614156103075760006003819055505b600160009054906101000a900473ffffffffffffffffffffffffffffffffffffffff1673ffffffffffffffffffffffffffffffffffffffff163373ffffffffffffffffffffffffffffffffffffffff1614156103665760006004819055505b565b6000809054906101000a900473ffffffffffffffffffffffffffffffffffffffff16815600a165627a7a72305820a18a4fffd14f42d8a4f5fa4a969e81a2f9b56442dfd53310c9c75d79f03f42930029",
  "source": "\npragma solidity ^0.4.17;\n\ncontract Escrow {\n    address public buyer;\n    address public seller;\n    uint createdAt;\n    uint buyerOk;\n    uint sellerOk;\n\n    function Escrow(address _seller, address _sender) public payable {\n        buyer = _sender;\n        seller = _seller;\n        createdAt = block.timestamp;\n    }\n\n    function accept() public {\n        if (msg.sender == buyer) {\n            //TODO: Handle buyerOK\n            buyerOk = now;\n        } \n\n        if (msg.sender == seller) {\n            // TODO: Seller Ok\n            sellerOk = now;\n\n        }\n        if (buyerOk != 0 && sellerOk != 0) {\n            seller.send(this.balance);\n        }\n\n    } \n\n    function reject() public {\n        if (msg.sender == buyer) {\n            //TODO: Handle buyerOK\n            buyerOk = 0;\n        } \n\n        if (msg.sender == seller) {\n            // TODO: Seller Ok\n            sellerOk = 0;\n        }\n    }\n}\n\ncontract EscrowFactory {\n    event EscrowCreated(address newAddess);\n\n    function EscrowFactory() public {}\n\n    function createEscrow(address seller) public {\n\n        address newAddress = address((new Escrow).value(msg.value)(msg.sender,seller));\n        EscrowCreated(newAddress);\n    }\n}",
  "sourcePath": "/home/nqd/workspaces/blockchain/unit2/contracts/Escrow.sol",
  "compiler": {
    "name": "solc",
    "version": "0.4.19+commit.c4cbbb05.Emscripten.clang"
  },
  "schemaVersion": "2.0.0",
  "updatedAt": "2018-03-21T14:14:20.395Z"
}